{
  "_format": "hh-sol-artifact-1",
  "contractName": "Voting",
  "sourceName": "contracts/Voting.sol",
  "abi": [
    {
      "inputs": [],
      "stateMutability": "nonpayable",
      "type": "constructor"
    },
    {
      "inputs": [],
      "name": "addMoneyToOwner",
      "outputs": [],
      "stateMutability": "payable",
      "type": "function"
    },
    {
      "inputs": [
        {
          "internalType": "uint256",
          "name": "_uniqueId",
          "type": "uint256"
        },
        {
          "internalType": "string",
          "name": "_systemName",
          "type": "string"
        },
        {
          "internalType": "uint256",
          "name": "_numberOfCandidates",
          "type": "uint256"
        },
        {
          "internalType": "string[]",
          "name": "_candidates",
          "type": "string[]"
        },
        {
          "internalType": "uint256",
          "name": "numberOfDays",
          "type": "uint256"
        },
        {
          "internalType": "string[]",
          "name": "_votersForElection",
          "type": "string[]"
        },
        {
          "internalType": "string",
          "name": "_electionHelderName",
          "type": "string"
        }
      ],
      "name": "createSystem",
      "outputs": [],
      "stateMutability": "nonpayable",
      "type": "function"
    },
    {
      "inputs": [
        {
          "internalType": "uint256",
          "name": "",
          "type": "uint256"
        },
        {
          "internalType": "string",
          "name": "",
          "type": "string"
        }
      ],
      "name": "differentSystemVotes",
      "outputs": [
        {
          "internalType": "uint256",
          "name": "",
          "type": "uint256"
        }
      ],
      "stateMutability": "view",
      "type": "function"
    },
    {
      "inputs": [],
      "name": "showBalance",
      "outputs": [
        {
          "internalType": "uint256",
          "name": "",
          "type": "uint256"
        }
      ],
      "stateMutability": "view",
      "type": "function"
    },
    {
      "inputs": [
        {
          "internalType": "uint256",
          "name": "",
          "type": "uint256"
        }
      ],
      "name": "systems",
      "outputs": [
        {
          "internalType": "uint256",
          "name": "uniqueId",
          "type": "uint256"
        },
        {
          "internalType": "string",
          "name": "systemName",
          "type": "string"
        },
        {
          "internalType": "uint256",
          "name": "numberOfCandidates",
          "type": "uint256"
        },
        {
          "internalType": "uint256",
          "name": "votingPeriod",
          "type": "uint256"
        },
        {
          "internalType": "string",
          "name": "electionHelderName",
          "type": "string"
        }
      ],
      "stateMutability": "view",
      "type": "function"
    },
    {
      "inputs": [
        {
          "internalType": "uint256",
          "name": "_uniqueId",
          "type": "uint256"
        },
        {
          "internalType": "string",
          "name": "_candidateName",
          "type": "string"
        },
        {
          "internalType": "string",
          "name": "_candidateAadhar",
          "type": "string"
        }
      ],
      "name": "voteKarteRaho",
      "outputs": [],
      "stateMutability": "nonpayable",
      "type": "function"
    }
  ],
  "bytecode": "0x608060405234801561001057600080fd5b5033600360006101000a81548173ffffffffffffffffffffffffffffffffffffffff021916908373ffffffffffffffffffffffffffffffffffffffff1602179055506114e0806100616000396000f3fe6080604052600436106100555760003560e01c80630ffca6041461005a57806381b2d07b1461009b5780638267642d146100c657806384f3f148146100ef578063b4ed7f76146100f9578063c2967b5e14610122575b600080fd5b34801561006657600080fd5b50610081600480360381019061007c9190610897565b61015f565b604051610092959493929190610963565b60405180910390f35b3480156100a757600080fd5b506100b06102a5565b6040516100bd91906109c4565b60405180910390f35b3480156100d257600080fd5b506100ed60048036038101906100e89190610bfa565b6102ad565b005b6100f76103a8565b005b34801561010557600080fd5b50610120600480360381019061011b9190610d0c565b610489565b005b34801561012e57600080fd5b5061014960048036038101906101449190610d97565b610499565b60405161015691906109c4565b60405180910390f35b600260205280600052604060002060009150905080600001549080600101805461018890610e22565b80601f01602080910402602001604051908101604052809291908181526020018280546101b490610e22565b80156102015780601f106101d657610100808354040283529160200191610201565b820191906000526020600020905b8154815290600101906020018083116101e457829003601f168201915b50505050509080600201549080600401549080600601805461022290610e22565b80601f016020809104026020016040519081016040528092919081815260200182805461024e90610e22565b801561029b5780601f106102705761010080835404028352916020019161029b565b820191906000526020600020905b81548152906001019060200180831161027e57829003601f168201915b5050505050905085565b600047905090565b600062015180846102be9190610e82565b426102c99190610ec4565b905060006040518060e001604052808a815260200189815260200188815260200187815260200183815260200185815260200184815250905080600260008b815260200190815260200160002060008201518160000155602082015181600101908161033591906110a4565b5060408201518160020155606082015181600301908051906020019061035c929190610773565b506080820151816004015560a0820151816005019080519060200190610383929190610773565b5060c082015181600601908161039991906110a4565b50905050505050505050505050565b600360009054906101000a900473ffffffffffffffffffffffffffffffffffffffff1673ffffffffffffffffffffffffffffffffffffffff163373ffffffffffffffffffffffffffffffffffffffff1614610438576040517f08c379a000000000000000000000000000000000000000000000000000000000815260040161042f906111c2565b60405180910390fd5b3373ffffffffffffffffffffffffffffffffffffffff166108fc670de0b6b3a76400009081150290604051600060405180830381858888f19350505050158015610486573d6000803e3d6000fd5b50565b6104948383836104d4565b505050565b600060205281600052604060002081805160208101820180518482526020830160208501208183528095505050505050600091509150505481565b6104de83826106cd565b61051d576040517f08c379a00000000000000000000000000000000000000000000000000000000081526004016105149061122e565b60405180910390fd5b600015156001600085815260200190815260200160002060003373ffffffffffffffffffffffffffffffffffffffff1673ffffffffffffffffffffffffffffffffffffffff16815260200190815260200160002060009054906101000a900460ff161515146105c1576040517f08c379a00000000000000000000000000000000000000000000000000000000081526004016105b89061129a565b60405180910390fd5b426002600085815260200190815260200160002060040154101561061a576040517f08c379a000000000000000000000000000000000000000000000000000000000815260040161061190611306565b60405180910390fd5b60016000808581526020019081526020016000208360405161063c9190611362565b908152602001604051809103902060008282546106599190610ec4565b92505081905550600180600085815260200190815260200160002060003373ffffffffffffffffffffffffffffffffffffffff1673ffffffffffffffffffffffffffffffffffffffff16815260200190815260200160002060006101000a81548160ff021916908315150217905550505050565b600080600090505b600260008581526020019081526020016000206005018054905081101561076757828051906020012060026000868152602001908152602001600020600501828154811061072657610725611379565b5b9060005260206000200160405161073d919061144b565b60405180910390200361075457600191505061076d565b808061075f90611462565b9150506106d5565b50600090505b92915050565b8280548282559060005260206000209081019282156107bb579160200282015b828111156107ba5782518290816107aa91906110a4565b5091602001919060010190610793565b5b5090506107c891906107cc565b5090565b5b808211156107ec57600081816107e391906107f0565b506001016107cd565b5090565b5080546107fc90610e22565b6000825580601f1061080e575061082d565b601f01602090049060005260206000209081019061082c9190610830565b5b50565b5b80821115610849576000816000905550600101610831565b5090565b6000604051905090565b600080fd5b600080fd5b6000819050919050565b61087481610861565b811461087f57600080fd5b50565b6000813590506108918161086b565b92915050565b6000602082840312156108ad576108ac610857565b5b60006108bb84828501610882565b91505092915050565b6108cd81610861565b82525050565b600081519050919050565b600082825260208201905092915050565b60005b8381101561090d5780820151818401526020810190506108f2565b60008484015250505050565b6000601f19601f8301169050919050565b6000610935826108d3565b61093f81856108de565b935061094f8185602086016108ef565b61095881610919565b840191505092915050565b600060a08201905061097860008301886108c4565b818103602083015261098a818761092a565b905061099960408301866108c4565b6109a660608301856108c4565b81810360808301526109b8818461092a565b90509695505050505050565b60006020820190506109d960008301846108c4565b92915050565b600080fd5b600080fd5b7f4e487b7100000000000000000000000000000000000000000000000000000000600052604160045260246000fd5b610a2182610919565b810181811067ffffffffffffffff82111715610a4057610a3f6109e9565b5b80604052505050565b6000610a5361084d565b9050610a5f8282610a18565b919050565b600067ffffffffffffffff821115610a7f57610a7e6109e9565b5b610a8882610919565b9050602081019050919050565b82818337600083830152505050565b6000610ab7610ab284610a64565b610a49565b905082815260208101848484011115610ad357610ad26109e4565b5b610ade848285610a95565b509392505050565b600082601f830112610afb57610afa6109df565b5b8135610b0b848260208601610aa4565b91505092915050565b600067ffffffffffffffff821115610b2f57610b2e6109e9565b5b602082029050602081019050919050565b600080fd5b6000610b58610b5384610b14565b610a49565b90508083825260208201905060208402830185811115610b7b57610b7a610b40565b5b835b81811015610bc257803567ffffffffffffffff811115610ba057610b9f6109df565b5b808601610bad8982610ae6565b85526020850194505050602081019050610b7d565b5050509392505050565b600082601f830112610be157610be06109df565b5b8135610bf1848260208601610b45565b91505092915050565b600080600080600080600060e0888a031215610c1957610c18610857565b5b6000610c278a828b01610882565b975050602088013567ffffffffffffffff811115610c4857610c4761085c565b5b610c548a828b01610ae6565b9650506040610c658a828b01610882565b955050606088013567ffffffffffffffff811115610c8657610c8561085c565b5b610c928a828b01610bcc565b9450506080610ca38a828b01610882565b93505060a088013567ffffffffffffffff811115610cc457610cc361085c565b5b610cd08a828b01610bcc565b92505060c088013567ffffffffffffffff811115610cf157610cf061085c565b5b610cfd8a828b01610ae6565b91505092959891949750929550565b600080600060608486031215610d2557610d24610857565b5b6000610d3386828701610882565b935050602084013567ffffffffffffffff811115610d5457610d5361085c565b5b610d6086828701610ae6565b925050604084013567ffffffffffffffff811115610d8157610d8061085c565b5b610d8d86828701610ae6565b9150509250925092565b60008060408385031215610dae57610dad610857565b5b6000610dbc85828601610882565b925050602083013567ffffffffffffffff811115610ddd57610ddc61085c565b5b610de985828601610ae6565b9150509250929050565b7f4e487b7100000000000000000000000000000000000000000000000000000000600052602260045260246000fd5b60006002820490506001821680610e3a57607f821691505b602082108103610e4d57610e4c610df3565b5b50919050565b7f4e487b7100000000000000000000000000000000000000000000000000000000600052601160045260246000fd5b6000610e8d82610861565b9150610e9883610861565b9250828202610ea681610861565b91508282048414831517610ebd57610ebc610e53565b5b5092915050565b6000610ecf82610861565b9150610eda83610861565b9250828201905080821115610ef257610ef1610e53565b5b92915050565b60008190508160005260206000209050919050565b60006020601f8301049050919050565b600082821b905092915050565b600060088302610f5a7fffffffffffffffffffffffffffffffffffffffffffffffffffffffffffffffff82610f1d565b610f648683610f1d565b95508019841693508086168417925050509392505050565b6000819050919050565b6000610fa1610f9c610f9784610861565b610f7c565b610861565b9050919050565b6000819050919050565b610fbb83610f86565b610fcf610fc782610fa8565b848454610f2a565b825550505050565b600090565b610fe4610fd7565b610fef818484610fb2565b505050565b5b8181101561101357611008600082610fdc565b600181019050610ff5565b5050565b601f8211156110585761102981610ef8565b61103284610f0d565b81016020851015611041578190505b61105561104d85610f0d565b830182610ff4565b50505b505050565b600082821c905092915050565b600061107b6000198460080261105d565b1980831691505092915050565b6000611094838361106a565b9150826002028217905092915050565b6110ad826108d3565b67ffffffffffffffff8111156110c6576110c56109e9565b5b6110d08254610e22565b6110db828285611017565b600060209050601f83116001811461110e57600084156110fc578287015190505b6111068582611088565b86555061116e565b601f19841661111c86610ef8565b60005b828110156111445784890151825560018201915060208501945060208101905061111f565b86831015611161578489015161115d601f89168261106a565b8355505b6001600288020188555050505b505050505050565b7f4e6f7420417574686f72697a6564000000000000000000000000000000000000600082015250565b60006111ac600e836108de565b91506111b782611176565b602082019050919050565b600060208201905081810360008301526111db8161119f565b9050919050565b7f596f7520617265206e6f7420417574686f72697a656420746f20566f74650000600082015250565b6000611218601e836108de565b9150611223826111e2565b602082019050919050565b600060208201905081810360008301526112478161120b565b9050919050565b7f596f75206861766520616c726561647920566f74656400000000000000000000600082015250565b60006112846016836108de565b915061128f8261124e565b602082019050919050565b600060208201905081810360008301526112b381611277565b9050919050565b7f54686520766f74696e672074696d65206973204f766572210000000000000000600082015250565b60006112f06018836108de565b91506112fb826112ba565b602082019050919050565b6000602082019050818103600083015261131f816112e3565b9050919050565b600081905092915050565b600061133c826108d3565b6113468185611326565b93506113568185602086016108ef565b80840191505092915050565b600061136e8284611331565b915081905092915050565b7f4e487b7100000000000000000000000000000000000000000000000000000000600052603260045260246000fd5b600081905092915050565b60008190508160005260206000209050919050565b600081546113d581610e22565b6113df81866113a8565b945060018216600081146113fa576001811461140f57611442565b60ff1983168652811515820286019350611442565b611418856113b3565b60005b8381101561143a5781548189015260018201915060208101905061141b565b838801955050505b50505092915050565b600061145782846113c8565b915081905092915050565b600061146d82610861565b91507fffffffffffffffffffffffffffffffffffffffffffffffffffffffffffffffff820361149f5761149e610e53565b5b60018201905091905056fea26469706673582212206fc7eda829a0607f38ee9c0c6373d26c29025da9b1aa1dd59d22613f8393150664736f6c63430008110033",
  "linkReferences": {},
  "deployedLinkReferences": {}
}