{
  "_format": "hh-sol-artifact-1",
  "contractName": "Voting",
  "sourceName": "contracts/Voting.sol",
  "abi": [
    {
      "inputs": [],
      "stateMutability": "nonpayable",
      "type": "constructor"
    },
    {
      "inputs": [],
      "name": "addMoneyToOwner",
      "outputs": [],
      "stateMutability": "payable",
      "type": "function"
    },
    {
      "inputs": [
        {
          "internalType": "uint256",
          "name": "_uniqueId",
          "type": "uint256"
        },
        {
          "internalType": "string",
          "name": "_systemName",
          "type": "string"
        },
        {
          "internalType": "uint256",
          "name": "_numberOfCandidates",
          "type": "uint256"
        },
        {
          "internalType": "string[]",
          "name": "_candidates",
          "type": "string[]"
        },
        {
          "internalType": "uint256",
          "name": "numberOfDays",
          "type": "uint256"
        }
      ],
      "name": "createSystem",
      "outputs": [],
      "stateMutability": "nonpayable",
      "type": "function"
    },
    {
      "inputs": [
        {
          "internalType": "uint256",
          "name": "",
          "type": "uint256"
        },
        {
          "internalType": "string",
          "name": "",
          "type": "string"
        }
      ],
      "name": "differentSystemVotes",
      "outputs": [
        {
          "internalType": "uint256",
          "name": "",
          "type": "uint256"
        }
      ],
      "stateMutability": "view",
      "type": "function"
    },
    {
      "inputs": [],
      "name": "showBalance",
      "outputs": [
        {
          "internalType": "uint256",
          "name": "",
          "type": "uint256"
        }
      ],
      "stateMutability": "view",
      "type": "function"
    },
    {
      "inputs": [
        {
          "internalType": "uint256",
          "name": "",
          "type": "uint256"
        }
      ],
      "name": "systems",
      "outputs": [
        {
          "internalType": "uint256",
          "name": "uniqueId",
          "type": "uint256"
        },
        {
          "internalType": "string",
          "name": "systemName",
          "type": "string"
        },
        {
          "internalType": "uint256",
          "name": "numberOfCandidates",
          "type": "uint256"
        },
        {
          "internalType": "uint256",
          "name": "votingPeriod",
          "type": "uint256"
        }
      ],
      "stateMutability": "view",
      "type": "function"
    },
    {
      "inputs": [
        {
          "internalType": "uint256",
          "name": "_uniqueId",
          "type": "uint256"
        },
        {
          "internalType": "string",
          "name": "_candidateName",
          "type": "string"
        }
      ],
      "name": "voteKarteRaho",
      "outputs": [],
      "stateMutability": "nonpayable",
      "type": "function"
    }
  ],
  "bytecode": "0x608060405234801561001057600080fd5b5033600360006101000a81548173ffffffffffffffffffffffffffffffffffffffff021916908373ffffffffffffffffffffffffffffffffffffffff160217905550611082806100616000396000f3fe6080604052600436106100555760003560e01c80630ffca6041461005a578063795fb7951461009a57806381b2d07b146100c357806384f3f148146100ee578063c2967b5e146100f8578063ef74df9514610135575b600080fd5b34801561006657600080fd5b50610081600480360381019061007c91906106d5565b61015e565b60405161009194939291906107a1565b60405180910390f35b3480156100a657600080fd5b506100c160048036038101906100bc9190610922565b610216565b005b3480156100cf57600080fd5b506100d8610224565b6040516100e5919061097e565b60405180910390f35b6100f661022c565b005b34801561010457600080fd5b5061011f600480360381019061011a9190610922565b61030d565b60405161012c919061097e565b60405180910390f35b34801561014157600080fd5b5061015c60048036038101906101579190610a7f565b610348565b005b600260205280600052604060002060009150905080600001549080600101805461018790610b61565b80601f01602080910402602001604051908101604052809291908181526020018280546101b390610b61565b80156102005780601f106101d557610100808354040283529160200191610200565b820191906000526020600020905b8154815290600101906020018083116101e357829003601f168201915b5050505050908060020154908060040154905084565b6102208282610402565b5050565b600047905090565b600360009054906101000a900473ffffffffffffffffffffffffffffffffffffffff1673ffffffffffffffffffffffffffffffffffffffff163373ffffffffffffffffffffffffffffffffffffffff16146102bc576040517f08c379a00000000000000000000000000000000000000000000000000000000081526004016102b390610bde565b60405180910390fd5b3373ffffffffffffffffffffffffffffffffffffffff166108fc670de0b6b3a76400009081150290604051600060405180830381858888f1935050505015801561030a573d6000803e3d6000fd5b50565b600060205281600052604060002081805160208101820180518482526020830160208501208183528095505050505050600091509150505481565b600062015180826103599190610c2d565b426103649190610c6f565b905060006040518060a0016040528088815260200187815260200186815260200185815260200183815250905080600260008981526020019081526020016000206000820151816000015560208201518160010190816103c49190610e4f565b506040820151816002015560608201518160030190805190602001906103eb9291906105b1565b506080820151816004015590505050505050505050565b600015156001600084815260200190815260200160002060003373ffffffffffffffffffffffffffffffffffffffff1673ffffffffffffffffffffffffffffffffffffffff16815260200190815260200160002060009054906101000a900460ff161515146104a6576040517f08c379a000000000000000000000000000000000000000000000000000000000815260040161049d90610f6d565b60405180910390fd5b42600260008481526020019081526020016000206004015410156104ff576040517f08c379a00000000000000000000000000000000000000000000000000000000081526004016104f690610fd9565b60405180910390fd5b6001600080848152602001908152602001600020826040516105219190611035565b9081526020016040518091039020600082825461053e9190610c6f565b92505081905550600180600084815260200190815260200160002060003373ffffffffffffffffffffffffffffffffffffffff1673ffffffffffffffffffffffffffffffffffffffff16815260200190815260200160002060006101000a81548160ff0219169083151502179055505050565b8280548282559060005260206000209081019282156105f9579160200282015b828111156105f85782518290816105e89190610e4f565b50916020019190600101906105d1565b5b509050610606919061060a565b5090565b5b8082111561062a5760008181610621919061062e565b5060010161060b565b5090565b50805461063a90610b61565b6000825580601f1061064c575061066b565b601f01602090049060005260206000209081019061066a919061066e565b5b50565b5b8082111561068757600081600090555060010161066f565b5090565b6000604051905090565b600080fd5b600080fd5b6000819050919050565b6106b28161069f565b81146106bd57600080fd5b50565b6000813590506106cf816106a9565b92915050565b6000602082840312156106eb576106ea610695565b5b60006106f9848285016106c0565b91505092915050565b61070b8161069f565b82525050565b600081519050919050565b600082825260208201905092915050565b60005b8381101561074b578082015181840152602081019050610730565b60008484015250505050565b6000601f19601f8301169050919050565b600061077382610711565b61077d818561071c565b935061078d81856020860161072d565b61079681610757565b840191505092915050565b60006080820190506107b66000830187610702565b81810360208301526107c88186610768565b90506107d76040830185610702565b6107e46060830184610702565b95945050505050565b600080fd5b600080fd5b7f4e487b7100000000000000000000000000000000000000000000000000000000600052604160045260246000fd5b61082f82610757565b810181811067ffffffffffffffff8211171561084e5761084d6107f7565b5b80604052505050565b600061086161068b565b905061086d8282610826565b919050565b600067ffffffffffffffff82111561088d5761088c6107f7565b5b61089682610757565b9050602081019050919050565b82818337600083830152505050565b60006108c56108c084610872565b610857565b9050828152602081018484840111156108e1576108e06107f2565b5b6108ec8482856108a3565b509392505050565b600082601f830112610909576109086107ed565b5b81356109198482602086016108b2565b91505092915050565b6000806040838503121561093957610938610695565b5b6000610947858286016106c0565b925050602083013567ffffffffffffffff8111156109685761096761069a565b5b610974858286016108f4565b9150509250929050565b60006020820190506109936000830184610702565b92915050565b600067ffffffffffffffff8211156109b4576109b36107f7565b5b602082029050602081019050919050565b600080fd5b60006109dd6109d884610999565b610857565b90508083825260208201905060208402830185811115610a00576109ff6109c5565b5b835b81811015610a4757803567ffffffffffffffff811115610a2557610a246107ed565b5b808601610a3289826108f4565b85526020850194505050602081019050610a02565b5050509392505050565b600082601f830112610a6657610a656107ed565b5b8135610a768482602086016109ca565b91505092915050565b600080600080600060a08688031215610a9b57610a9a610695565b5b6000610aa9888289016106c0565b955050602086013567ffffffffffffffff811115610aca57610ac961069a565b5b610ad6888289016108f4565b9450506040610ae7888289016106c0565b935050606086013567ffffffffffffffff811115610b0857610b0761069a565b5b610b1488828901610a51565b9250506080610b25888289016106c0565b9150509295509295909350565b7f4e487b7100000000000000000000000000000000000000000000000000000000600052602260045260246000fd5b60006002820490506001821680610b7957607f821691505b602082108103610b8c57610b8b610b32565b5b50919050565b7f4e6f7420417574686f72697a6564000000000000000000000000000000000000600082015250565b6000610bc8600e8361071c565b9150610bd382610b92565b602082019050919050565b60006020820190508181036000830152610bf781610bbb565b9050919050565b7f4e487b7100000000000000000000000000000000000000000000000000000000600052601160045260246000fd5b6000610c388261069f565b9150610c438361069f565b9250828202610c518161069f565b91508282048414831517610c6857610c67610bfe565b5b5092915050565b6000610c7a8261069f565b9150610c858361069f565b9250828201905080821115610c9d57610c9c610bfe565b5b92915050565b60008190508160005260206000209050919050565b60006020601f8301049050919050565b600082821b905092915050565b600060088302610d057fffffffffffffffffffffffffffffffffffffffffffffffffffffffffffffffff82610cc8565b610d0f8683610cc8565b95508019841693508086168417925050509392505050565b6000819050919050565b6000610d4c610d47610d428461069f565b610d27565b61069f565b9050919050565b6000819050919050565b610d6683610d31565b610d7a610d7282610d53565b848454610cd5565b825550505050565b600090565b610d8f610d82565b610d9a818484610d5d565b505050565b5b81811015610dbe57610db3600082610d87565b600181019050610da0565b5050565b601f821115610e0357610dd481610ca3565b610ddd84610cb8565b81016020851015610dec578190505b610e00610df885610cb8565b830182610d9f565b50505b505050565b600082821c905092915050565b6000610e2660001984600802610e08565b1980831691505092915050565b6000610e3f8383610e15565b9150826002028217905092915050565b610e5882610711565b67ffffffffffffffff811115610e7157610e706107f7565b5b610e7b8254610b61565b610e86828285610dc2565b600060209050601f831160018114610eb95760008415610ea7578287015190505b610eb18582610e33565b865550610f19565b601f198416610ec786610ca3565b60005b82811015610eef57848901518255600182019150602085019450602081019050610eca565b86831015610f0c5784890151610f08601f891682610e15565b8355505b6001600288020188555050505b505050505050565b7f596f75206861766520616c726561647920566f74656400000000000000000000600082015250565b6000610f5760168361071c565b9150610f6282610f21565b602082019050919050565b60006020820190508181036000830152610f8681610f4a565b9050919050565b7f54686520766f74696e672074696d65206973204f766572210000000000000000600082015250565b6000610fc360188361071c565b9150610fce82610f8d565b602082019050919050565b60006020820190508181036000830152610ff281610fb6565b9050919050565b600081905092915050565b600061100f82610711565b6110198185610ff9565b935061102981856020860161072d565b80840191505092915050565b60006110418284611004565b91508190509291505056fea2646970667358221220878876433a1c3405f1ce6d82b65d5214aac4bb95966dc2b04057e35ffeb6f0ef64736f6c63430008110033",
  "linkReferences": {},
  "deployedLinkReferences": {}
}